:0200000020C01E
:1000020059C070C0FCCFFBCFFACFF9CFF8CF06C1F1
:10001200AEC069C07CC0F3CFF2CFF1CFF0CFEFCF4B
:10002200EECFEDCF1027E80364000A0001000010B4
:100032000001100001000000010002003800000071
:10004200F894EE27ECBBF1E0FBBFEBBFE5BF8DE020
:10005200A2E0BB27ED938A95E9F780E094E0A0E661
:10006200ED930197E9F7EAE3F0E085919591009726
:1000720061F0A591B59105901590BF01F001059031
:100082000D920197E1F7FB01F0CFEFE5EDBFE4E060
:10009200EEBFC0E6D1E0C3C0AA93E881E7B98BE125
:1000A2008A95F1F7369A349BFECF349AE4B1F5B1D2
:1000B20021960895EA93EFB7EA931A9382990DC0B5
:1000C20010E01A3010F41F5FFCCF829906C06894CA
:1000D20020F8E2E34E2E9498979A1991E991EFBF96
:1000E200E99118951895EAD0EFB1E13531F455242C
:1000F200A0E0D2DFF5D0EFB909C0E0E0E51520F4C9
:10010200EA2DEFB9552402C0E1E05E2E79C0AA9330
:10011200EA93FA93EFB7EA93E8D01BB10CB1E12F5F
:10012200EC71E9F4E0918101EF5FE0938101E1502C
:10013200F0E0EF59FE4F0083A0918101A03219F443
:10014200E0E0E0938101A0918301AF5FA09383017E
:10015200A03229F4E0E0E0938301689421F8099148
:100162001991E991EFBFF991E991A9911895A6D05A
:10017200E6E0E2BF20FE23C0A0E08EDFE093600154
:10018200E42D4A94E03049F4A0916001AA3118F0BC
:100192004424949A02C0E5E04E2E839B0FC0B29B8A
:1001A2000CC0E8EEF3E0AE16BF0628F0C49A9798AA
:1001B200E89420F802C0C498979A01C0C498F30149
:1001C20031963F01E6E0E2BFE1E0F0E06E167F0625
:1001D200B8F066247724E0E0E51590F4F894ACB426
:1001E200BDB4E0E7F7E1AE16BF0618F0E1E0F0E0DB
:1001F2005F01F501E070EF2FF0E0EFB96DD0789478
:10020200E991EFBFF991E991B991A99199918991F8
:1002120079916991F9901990099018951895E2E1F0
:10022200E7BBE0E0E8BBE4BBE5BBE0EDE1BBE0E55A
:10023200E2BBE3E0E3BFE6E0E2BFE0E0EFBDE7E020
:10024200EEBD4AD0E0E0E7BDE6BDEBBDEABDE9BDEB
:10025200E8BDE2BDE5BDE4BDE3BDE5E0E9BFEBB766
:10026200E06CEBBFE6E0E5BFE0ECEABFE0E0EBB953
:10027200E8E9EAB9E6EAE0BDE0E0E0BDE3E3E9B9D6
:10028200E0E8E8B9E0E0E7B9E3E8E6B9E0E0E0BFDA
:10029200E0ECEDB9E0E0EEB9EEB1EFB1E0E0E6BFDF
:1002A200A0E0FADE6F0178946624772488249924EA
:1002B200E1E05E2EE0E0EFB9FFCFFFCF0A921A92A3
:1002C200FA926A937A938A939A93AA93BA93EA9345
:1002D200FA93EFB7EA930895E0E0EDBDECBD08951F
:1002E200F695E795F695E79508951A930A9308957A
:00000001FF
