:0C00000024C05DC073C0FCCFFBCFFACF62
:10000C00F9CFF8CFF0C09BC06CC070C0F3CFF2CF6B
:10001C00F1CFF0CFEFCFEECFEDCF1027E803640098
:10002C000A00010000100001100001000000000097
:10003C0001000200380001000C003A000000F894A6
:10004C00EE27ECBBF1E0FBBFEBBFE5BF8DE0A2E020
:10005C00BB27ED938A95E9F780E094E0A0E6ED9359
:10006C000197E9F7ECE3F0E085919591009761F049
:10007C00A591B59105901590BF01F00105900D92D9
:10008C000197E1F7FB01F0CFEFE5EDBFE4E0EEBF48
:10009C00C0E6D1E0A9C0AA93E881E7B98BE18A95C3
:1000AC00F1F7369A349BFECF349AE4B1F5B1219630
:1000BC000895EA93EFB7EA931A9382990CC010E073
:1000CC001A3010F41F5FFCCF829905C0689420F899
:1000DC00E2E34E2E94981991E991EFBFE9911895AE
:1000EC001895EA93E82DEFB9E9911895AA93EA933C
:1000FC00FA93EFB7EA93C9D01BB10CB1E12FEC71B5
:10010C00B1F4EC2DC394F0E0E05AFE4F0083E0E232
:10011C00EC1509F4CC24A0918101AF5FA09381016F
:10012C00A03229F4E0E0E0938101689421F8099170
:10013C001991E991EFBFF991E991A99118950A925A
:10014C001A92FA926A937A938A939A93AA93BA938D
:10015C00EA93FA93EFB7EA93E6E0E2BF20FE17C00A
:10016C00A0E099DFDE2EE42D4A94E03051F4E4E671
:10017C00ED1528F44424E89420F8949A02C0E5E0A4
:10018C004E2E7FD066247724E2E1EFB91EC0F30136
:10019C0031963F01E6E0E2BFE1E0F0E06E167F064B
:1001AC00A0F066247724F8948CB49DB4E0E7F7E1D2
:1001BC008E169F0618F0E1E0F0E04F01F401E070BC
:1001CC00EF2FF0E0EFB95DD07894E991EFBFF991A2
:1001DC00E991B991A9919991899179916991F99044
:1001EC001990099018951895E2E1E7BBE0E0E8BB9F
:1001FC00E4BBE5BBE0EDE1BBE0E5E2BBE3E0E3BF84
:10020C00E6E0E2BFE0E0EFBDE7E0EEBD3AD0E0E0D3
:10021C00E7BDE6BDEBBDEABDE9BDE8BDE2BDE5BDB0
:10022C00E4BDE3BDE5E0E9BFEBB7E06CEBBFE6E0B6
:10023C00E5BFE0ECEABFE0E0EBB9E8E9EAB9E6EAF1
:10024C00E0BDE0E0E0BDE3E3E9B9E0E8E8B9E0E017
:10025C00E7B9E3E8E6B9E0E0E0BFE0ECEDB9E0E0F7
:10026C00EEB9EEB1EFB1E0E0E6BFA0E014DF5F0164
:10027C00789466247724E1E05E2EE0E0EFB9FFCFBE
:10028C00FFCFE0E0EDBDECBD08951A930A930895FD
:00000001FF
