:0E00000024C05DC073C0FCCFFBCFFACFF9CF98
:10000E00F8CFFEC0AAC06CC07FC0F3CFF2CFF1CF45
:10001E00F0CFEFCFEECFEDCF1027E80364000A004C
:10002E00010000100001100001000000000001009E
:10003E000200380001000C003A000000F894EE2790
:10004E00ECBBF1E0FBBFEBBFE5BF8DE0A2E0BB2751
:10005E00ED938A95E9F780E094E0A0E6ED930197A1
:10006E00E9F7ECE3F0E085919591009761F0A591A9
:10007E00B59105901590BF01F00105900D92019775
:10008E00E1F7FB01F0CFEFE5EDBFE4E0EEBFC0E638
:10009E00D1E0B7C0AA93E881E7B98BE18A95F1F771
:1000AE00369A349BFECF349AE4B1F5B12196089579
:1000BE00EA93EFB7EA931A9382990CC010E01A30C4
:1000CE0010F41F5FFCCF829905C0689420F8EBE412
:1000DE004E2E94981991E991EFBFE99118951895C4
:1000EE00DDD0EFB1E13531F45524A0E0D3DFE8D017
:1000FE00EFB909C0E0E0E51520F4E82DEFB955247D
:10010E0002C0E1E05E2E6EC0AA93EA93FA93EFB7B7
:10011E00EA93DBD01BB10CB1E12FEC71B1F4EC2DF5
:10012E00C394F0E0E05AFE4F0083E0E2EC1509F4D0
:10013E00CC24A0918101AF5FA0938101A03229F45C
:10014E00E0E0E0938101689421F809911991E99119
:10015E00EFBFF991E991A9911895A0D0E6E0E2BF21
:10016E0020FE1FC0A0E096DFDE2EE42D4A94E03084
:10017E0051F4E9E1ED1528F44424E89420F8949A1A
:10018E0002C0E5E04E2E839B0BC0B29B08C0E8EE8A
:10019E00F3E08E169F0610F0C49A01C0C49801C0F9
:1001AE00C498F30131963F01E6E0E2BFE1E0F0E0F2
:1001BE006E167F06B8F066247724E0E0E51590F41D
:1001CE00F8948CB49DB4E0E7F7E18E169F0618F014
:1001DE00E1E0F0E04F01F401E070EF2FF0E0EFB955
:1001EE006BD07894E991EFBFF991E991B991A9910A
:1001FE009991899179916991F99019900990189531
:10020E001895E2E1E7BBE0E0E8BBE4BBE5BBE0ED5F
:10021E00E1BBE0E5E2BBE3E0E3BFE6E0E2BFE0E046
:10022E00EFBDE7E0EEBD48D0E0E0E7BDE6BDEBBDDB
:10023E00EABDE9BDE8BDE2BDE5BDE4BDE3BDE5E077
:10024E00E9BFEBB7E06CEBBFE6E0E5BFE0ECEABF81
:10025E00E0E0EBB9E8E9EAB9E6EAE0BDE0E0E0BDEE
:10026E00E3E3E9B9E0E8E8B9E0E0E7B9E3E8E6B9E5
:10027E00E0E0E0BFE0ECEDB9E0E0EEB9EEB1EFB1F9
:10028E00E0E0E6BFA0E006DF5F0178946624772405
:10029E00E1E05E2EE0E0EFB9FFCFFFCF0A921A92B7
:1002AE00FA926A937A938A939A93AA93BA93EA9359
:1002BE00FA93EFB7EA930895E0E0EDBDECBD089533
:1002CE00F695E795F695E79508951A930A9308958E
:00000001FF
