:0C00000020C059C06FC0FCCFFBCFFACF6E
:10000C00F9CFF8CF03C1ADC068C07BC0F3CFF2CF3E
:10001C00F1CFF0CFEFCFEECFEDCF1027E803640098
:10002C000A00010000100001100001000000010096
:10003C00020038000000F894EE27ECBBF1E0FBBFA7
:10004C00EBBFE5BF8DE0A2E0BB27ED938A95E9F706
:10005C0080E094E0A0E6ED930197E9F7EAE3F0E0A5
:10006C0085919591009761F0A591B59105901590AA
:10007C00BF01F00105900D920197E1F7FB01F0CF64
:10008C00EFE5EDBFE4E0EEBFC0E6D1E0C0C0AA935F
:10009C00E881E7B98BE18A95F1F7369A349BFECF6C
:1000AC00349AE4B1F5B121960895EA93EFB7EA9347
:1000BC001A9382990CC010E01A3010F41F5FFCCF19
:1000CC00829905C0689420F8E2E34E2E9498199119
:1000DC00E991EFBFE99118951895E8D0EFB1E135AA
:1000EC0031F45524A0E0D3DFF3D0EFB909C0E0E040
:1000FC00E51520F4EA2DEFB9552402C0E1E05E2E9F
:10010C0077C0AA93EA93FA93EFB7EA93E6D01BB1C0
:10011C000CB1E12FEC71E9F4E0918101EF5FE09318
:10012C008101E150F0E0EF59FE4F0083A091810175
:10013C00A03219F4E0E0E0938101A0918301AF5F5C
:10014C00A0938301A03229F4E0E0E093830168944A
:10015C0021F809911991E991EFBFF991E991A991D0
:10016C001895A4D0E6E0E2BF20FE21C0A0E08FDF0E
:10017C00E0936001E42D4A94E03059F4A0916001C1
:10018C00AA3128F04424949AE89420F802C0E5E0BF
:10019C004E2E839B0BC0B29B08C0E8EEF3E0AE166C
:1001AC00BF0610F0C49A01C0C49801C0C498F301F2
:1001BC0031963F01E6E0E2BFE1E0F0E06E167F062B
:1001CC00B8F066247724E0E0E51590F4F894ACB42C
:1001DC00BDB4E0E7F7E1AE16BF0618F0E1E0F0E0E1
:1001EC005F01F501E070EF2FF0E0EFB96DD078947E
:1001FC00E991EFBFF991E991B991A99199918991FF
:10020C0079916991F9901990099018951895E2E1F6
:10021C00E7BBE0E0E8BBE4BBE5BBE0EDE1BBE0E560
:10022C00E2BBE3E0E3BFE6E0E2BFE0E0EFBDE7E026
:10023C00EEBD4AD0E0E0E7BDE6BDEBBDEABDE9BDF1
:10024C00E8BDE2BDE5BDE4BDE3BDE5E0E9BFEBB76C
:10025C00E06CEBBFE6E0E5BFE0ECEABFE0E0EBB959
:10026C00E8E9EAB9E6EAE0BDE0E0E0BDE3E3E9B9DC
:10027C00E0E8E8B9E0E0E7B9E3E8E6B9E0E0E0BFE0
:10028C00E0ECEDB9E0E0EEB9EEB1EFB1E0E0E6BFE5
:10029C00A0E0FDDE6F0178946624772488249924ED
:1002AC00E1E05E2EE0E0EFB9FFCFFFCF0A921A92A9
:1002BC00FA926A937A938A939A93AA93BA93EA934B
:1002CC00FA93EFB7EA930895E0E0EDBDECBD089525
:1002DC00F695E795F695E79508951A930A93089580
:00000001FF
